:020000041A00E0
:10000000008000104523001A7901001A7B01001AB4
:100010007D01001A7F01001A8101001A4A55FF5321
:100020000000000000000000000000008301001A32
:100030008501001A000000008701001ABD37001A70
:10004000BB01001ABB01001ABB01001A000000002E
:10005000BB01001ABB01001ABB01001ABB01001A48
:10006000E937001ABB01001ABB01001ABB01001AD4
:10007000BB01001ABB01001ABB01001ABB01001A28
:10008000BB01001ABB01001ABB01001ABB01001A18
:10009000BB01001ABB01001ABB01001ABB01001A08
:1000A000BB01001ABB01001ABB01001ABB01001AF8
:1000B000BB01001ABB01001ABB01001ABB01001AE8
:1000C000BB01001ABB01001ABB01001ABB01001AD8
:1000D000BB01001ABB01001ABB01001ABB01001AC8
:1000E000BB01001ABB01001ABB01001ABB01001AB8
:1000F00000000000BB01001ABB01001ABB01001A7E
:1001000000000000BB01001ABB01001ABB01001A6D
:10011000BB01001A3449001A000000104C00000016
:100120003449001A00000810000000003449001A89
:1001300000000020000000003449001A0080002068
:10014000000000003449001A00C000200000000038
:1001500050000010CC020000000008100000000059
:1001600000000020000000000080002000000000CF
:1001700000C0002000000000FEE7FEE7FEE7FEE70B
:10018000FEE7FEE7FEE7FEE7FEE7002393420AD222
:1001900010B450F8044B41F8044B04339342F8D3A5
:1001A0005DF8044B7047704700238B4204D2002255
:1001B00040F8042B0433F8E77047FEE7FFFFFFFF2A
:1001C000FFFFFFFFFFFFFFFFFFFFFFFFFFFFFFFF3F
:1001D000FFFFFFFFFFFFFFFFFFFFFFFFFFFFFFFF2F
:1001E000FFFFFFFFFFFFFFFFFFFFFFFFFFFFFFFF1F
:1001F000FFFFFFFFFFFFFFFFFFFFFFFFFFFFFFFF0F
:10020000FFFFFFFFFFFFFFFFFFFFFFFFFFFFFFFFFE
:10021000FFFFFFFFFFFFFFFFFFFFFFFFFFFFFFFFEE
:10022000FFFFFFFFFFFFFFFFFFFFFFFFFFFFFFFFDE
:10023000FFFFFFFFFFFFFFFFFFFFFFFFFFFFFFFFCE
:10024000FFFFFFFFFFFFFFFFFFFFFFFFFFFFFFFFBE
:10025000FFFFFFFFFFFFFFFFFFFFFFFFFFFFFFFFAE
:10026000FFFFFFFFFFFFFFFFFFFFFFFFFFFFFFFF9E
:10027000FFFFFFFFFFFFFFFFFFFFFFFFFFFFFFFF8E
:10028000FFFFFFFFFFFFFFFFFFFFFFFFFFFFFFFF7E
:10029000FFFFFFFFFFFFFFFFFFFFFFFFFFFFFFFF6E
:1002A000FFFFFFFFFFFFFFFFFFFFFFFFFFFFFFFF5E
:1002B000FFFFFFFFFFFFFFFFFFFFFFFFFFFFFFFF4E
:1002C000FFFFFFFFFFFFFFFFFFFFFFFFFFFFFFFF3E
:1002D000FFFFFFFFFFFFFFFFFFFFFFFFFFFFFFFF2E
:1002E000FFFFFFFFFFFFFFFFFFFFFFFFFFFFFFFF1E
:1002F000FFFFFFFFFFFFFFFFFFFFFFFFFFFFFFFF0E
:10030000014B01221A70704750000010012800D0E4
:1003100070474FF6FF739942FAD110B5044C1E2175
:10032000204600F0CAFC2146024800F0DFFB10BD69
:10033000C0000010D400001008B501F128001146DB
:1003400040B203F035F908BD08B548B2114603F0D4
:100350002FF908BD08B548B203F05FF9003018BFA7
:10036000012008BD30B59FB00025964C1CAB94E829
:10037000030083E80300944A92E803001A90ADF862
:100380006C10090C8DF86E101946284603F004FD18
:100390008E4A17AB07CA03C31A7004F1080393E827
:1003A00003001590ADF85810090C8DF85A108DF80F
:1003B0005B5004F1100393E8030013908DF8501084
:1003C0008DF85150824B1B68ADF848301B0C8DF8EE
:1003D0004A30804B1193804B93E803000F90ADF8A7
:1003E00040107E4B93E803000D90ADF83810090CD7
:1003F0008DF83A107A4A0AAB07CA03C323F8022BD6
:10040000120C1A7007AB183494E8030083E8030059
:100410008DF82450734B0693734B93E803000490BC
:10042000ADF81410714A02AB92E8030083E80300B0
:100430006F4B93E803000090ADF804106D4801F095
:10044000E5FE02284FD0032800F09080012811D04B
:100450000021084603F05AFC684603F092FC4FF472
:100460004870002103F034FB002003F080FC03F00F
:1004700075FC2EE02946284603F048FC17A803F037
:1004800080FC2946092003F041FC5A4801F0B4FEE3
:1004900008BB12A803F075FC0121002003F036FC14
:1004A00013A803F06EFC0121052003F02FFC514836
:1004B00001F0A4FE012812D00AA803F062FC4FF458
:1004C0004870002103F004FB002003F050FC03F00F
:1004D00045FC1FB030BD11A803F053FCDCE70DA8AC
:1004E00003F04FFCEBE70021084603F00FFC15A8D2
:1004F00003F047FC0021082003F008FC3D4801F010
:100500007FFE38B312A803F03CFC0121002003F069
:10051000FDFB284603F090FB0321002003F0F6FBCF
:100520001AA803F02EFC334801F076FE51EC100BB4
:1005300003F054FE00EE100A022003F085FC4FF495
:100540004870002103F0C4FA002003F010FC03F00F
:1005500005FCBEE7274801F056FE18B10FA803F0CE
:1005600010FCD2E711A803F00CFCCEE700210846EE
:1005700003F0CCFB07A803F004FC0021072003F0E4
:10058000C5FB1C4801F044FE012812D0194801F0B7
:1005900041FE012811D002A803F0F3FB4FF448708C
:1005A000002103F095FA002003F0E1FB03F0D6FBF5
:1005B0008FE706A803F0E5FBF0E704A803F0E1FBF2
:1005C000ECE700BFD845001AFC45001A0446001AA3
:1005D0001046001A4F4646001446001A1C46001AE0
:1005E0002446001A526564003046001A3846001A44
:1005F0004046001A5800001010B5094C204600F083
:1006000004FA0021204600F05BFA10EE100A03F015
:100610008DFD41EC100B034801F001FE10BD00BF41
:10062000D40000105800001000B583B000931346AA
:100630000A461321024801F006FE03B05DF804FBF0
:10064000F000001008B50A461321024801F014FE1C
:1006500008BD00BFF000001038B50024254600E0BA
:100660000134032C0BD804F1240040B202F0D5FF72
:100670000028F5D10123A3401D43EDB2F0E7284641
:1006800038BD08B502F0C9FF08BDFFFF70B5454889
:1006900000F048F903F0B6F80021202002F0B2FE85
:1006A00000211F2002F0AEFE01210F2002F0AAFE61
:1006B00001210E2002F0A6FE01210D2002F0A2FE73
:1006C00001210C2002F09EFE0120002103F038F8E9
:1006D0000021354803F018F81321344801F0A2FD39
:1006E000334C204601F065FC204601F085FC314981
:1006F000002002F0C7FF4FF47A70002103F0E8F900
:10070000082305220221102003F0AEFA002003F096
:100710002EFB03F023FB30E0244D2601A959244889
:1007200001F04EFDAA591321284601F0D6FD0134EF
:10073000122C08D81D482301C258132101F0B6FD20
:100740000028F4D0E8E7FFF787FF04462020FFF7F2
:1007500098FF0546F4B12146154801F03DFDEDB97D
:10076000134801F03DFD124C204601F042FD2046A9
:1007700001F03CFD204601F059FC30BF0E4B1B78C8
:10078000002BFAD000240C4B1C701321074801F0F9
:10079000B6FDCDE7064801F01CFDE0E7044801F096
:1007A00022FDE0E7D40000100103001AF000001061
:1007B00058000010A08601005000001008B54FF648
:1007C000FF710120FFF7A2FD08BD0B78103B322B13
:1007D0001DD8DFE803F01A1C1C1C1C1C1C1C1C1C54
:1007E0001C1C1C1C1C1C1C1C1A1C1C1C1C1C1A1C4D
:1007F0001C1C1C1C1C1C1C1C1C1C1C1C1C1C1C1C39
:100800001C1A1C1C1C1C1C1C1A00012070470020F8
:1008100070478160002303714371037009234370A3
:1008200001238370C370704710B50C460721204622
:1008300000F0D6FAE379984214BF0020012010BDE1
:10084000F8B506460F461546806800F02AFA0024DF
:1008500001E00134E4B2AC4210D801223946B0685C
:1008600000F039FA034650B1AC42F2D13946304675
:10087000FFF7DAFF03460028EBD000E0002318461C
:10088000F8BD70B505460C461646806800F038F98C
:1008900008B9002070BD2146A86800F0E9F90022DF
:1008A000BE21A86800F0B5F90024082C06D8A86875
:1008B00000F0CDF930550134E4B2F6E7A86800F055
:1008C0001FF9012814BF00200120E3E738B51546C1
:1008D000FFF7D7FF044608B9204638BD082128464F
:1008E00000F07EFA2B7A9842F6D00024F4E738B56F
:1008F00004460D46806800F003F92946A06800F020
:10090000B7F90022B421A06800F083F9A06800F0D4
:100910005FF928B10025A06800F0F2F8284638BD3C
:100920000125F8E710B582B00446806800F0B9F9F7
:1009300000232371637101226946A06800F0CBF99E
:10094000F8B169462046FFF76FFF0028F3D02378FF
:1009500073B10923637023790133237169462046FB
:10096000FFF733FF0028E6D0637901336371E2E7D4
:1009700069462046FFF7BBFF0028EAD00123237019
:10098000E7E702B010BD08B5806800F021F9012842
:1009900014BF0020012008BD0A2906D00B2906D06B
:1009A000092907D040F2EE207047BC20704740F282
:1009B000771070475E2070472DE9F0478046FFF7BB
:1009C000EBFF814698F8033013B198F8003033B14B
:1009D0000FFA89F0C11703F07BF8BDE8F08702F049
:1009E0008DFE82464046FFF7CEFF0028F5D102F08B
:1009F00085FE0FFA89F2D317841A61EB03050027ED
:100A0000BD4208BF5445EDD3E7E710B50446806802
:100A100000F076F8A06800F03EF922784421A06842
:100A200000F0F7F8A37803B910BD61782046FFF70E
:100A3000C3FFF9E75078C00200B2137840EAC30060
:100A40000B78102B00D07047C00020F07F0080B2E0
:100A5000D1799379CB1ADB0193FBF1F31844103869
:100A600000B2F0E730B585B004460D4601AAFFF7A5
:100A70002DFF30B101AA29462046FFF7DBFF05B064
:100A800030BD0148FBE700BF80E4FFFF10F5DC5FED
:100A900008DD07EE900AB8EEE70ADFED047A20EEF3
:100AA000270A70479FED020A704700BF0000003C14
:100AB0000000FEC208B5FFF7D5FFFFF7E7FF08BD4E
:100AC00010B582B004460A466946FFF7B9FE18B968
:100AD0009FED040A02B010BD69462046FFF7EAFF09
:100AE000F8E700BF0000FEC28161704710B5044600
:100AF000FFF78FFE00212046FFF7F6FF204610BDCE
:100B000038B590F900500021284602F07BFC7D2486
:100B1000601E10F0FF0428D00220002102F0A9FF7F
:100B2000284602F07AFD0028F2D00021284602F083
:100B30003FFD0121284602F065FC4FF4F0700021D2
:100B400002F097FF0021284602F05CFC46200021BD
:100B500002F08FFF284602F060FDB0FA80F46409CD
:100B60004FF4CD70002102F084FF204638BD10B54F
:100B7000046811F0010F15D064B20021204602F084
:100B800017FD0121204602F03DFC0A20002102F061
:100B900070FF0121204602F00BFD3720002102F0FA
:100BA00068FF10BD64B20021204602F001FD012162
:100BB000204602F027FC4120002102F05AFF0121CB
:100BC000204602F0F5FC0520002102F052FFE8E784
:100BD00010B590F900400121204602F013FC0021DD
:100BE000204602F0E5FC0320002102F042FF002134
:100BF000204602F007FC0A20002102F03AFF2046BE
:100C000002F00BFD04463520002102F032FF2046A1
:100C100010BDF8B505460E461746012405E0002133
:100C20002846FFF7A4FF6400E4B21CB13442F6D0BA
:100C30000121F5E707B1F8BD002195F9000002F0A8
:100C4000E1FB002195F9000002F0B2FCF3E770B57A
:100C500006460025012401E06400E4B234B13046C8
:100C6000FFF7B6FF0028F7D02543F5E7284670BD0B
:100C700070B506460D4600225521FFF7CAFF002435
:100C800006E00022295D3046FFF7C3FF0134E4B2DD
:100C9000072CF6D970BD08B50022CC21FFF7B9FFAB
:100CA00008BD002303748374437407228318002152
:100CB00019720AB1013AF9E7704738B504460D4692
:100CC000002168B202F09EFB25600023636020468D
:100CD000FFF7E7FF38BD2DE9F0470546847C3CB1BE
:100CE00000202874A874687404462046BDE8F08784
:100CF00089461646FFF704FF58B17EB10022F02165
:100D00002846FFF786FF01244FF00008C246274619
:100D10003AE000232B74AB746B74E6E70022EC21FD
:100D20002846FFF776FFEEE7012836D1402FD7D9C6
:100D300085F810A0BAF1000F01D10123AB742B7A12
:100D4000002BCDD0002347E02E7CBE420CD905EB12
:100D500008031B7A234214BF01260026FEB9082F80
:100D600007D86F74BA461AE0BE4214BF00260126A7
:100D7000F4E7BA4613E005EB0802137A2343137233
:100D800015E0B8F1070FD1D82846FFF721FF064636
:100D90002846FFF71DFF012EC6D08642D4D0012E73
:100DA000E9D005EB0802137A23EA040313723146F3
:100DB0002846FFF7DCFE0137FFB2640014F0FF04A1
:100DC000DFD108F101085FFA88F80124D9E7EA18B1
:100DD000127A09F803200133072BF8DD012484E798
:100DE00010B400244A1ED2B261B110F8013B634036
:100DF00003F00F0405490C5D1B091033CB5C5C400C
:100E00001146EFE720465DF8044B70474846001A4C
:100E1000002303744374037643768376C37680F8A5
:100E2000403080F8413080F8423080F8433080F81C
:100E3000443080F8453080F8463080F8473080F8FC
:100E4000503080F8513080F8523080F8533080F8BC
:100E5000543080F8553080F8563080F8573080F89C
:100E6000583080F8593080F85A3080F85B3080F87C
:100E70005C3080F85D3080F85E3080F85F3080F85C
:100E8000603080F8613080F86230704790F8500030
:100E90007047407C7047007C7047407C7047007C06
:100EA000704790F8403023B1836C012B03D00020B1
:100EB0007047002070470120704790F8403063B1C0
:100EC000836C022B01D00020704790F8283033B992
:100ED000436A012B05D00020704700207047002096
:100EE00070470120704790F840304BB1836C042B61
:100EF00001D000207047436A012B03D000207047C7
:100F0000002070470120704790F840304BB1836C4F
:100F1000082B01D000207047436A012B03D000202A
:100F20007047002070470120704790F843007047D9
:100F300090F84300704790F8513023B1436A012B79
:100F400003D000207047002070470120704790F8C0
:100F500052301BB1436A1BB100207047002070471C
:100F600001207047007E704790F853007047407E24
:100F70007047007E7047407E704790F8540070477D
:100F800090F855304BB190F8203043B9C36C022B28
:100F900007DC436A3BB10020704700207047002007
:100FA0007047002070470120704790F8563023B1F9
:100FB00090F820301BB900207047002070470120B6
:100FC000704790F857303BB190F8203033B9C36C7C
:100FD000022B05DC0020704700207047002070477E
:100FE0000120704790F858303BB190F8203033B969
:100FF000436A012B05D00020704700207047002075
:1010000070470120704790F842301BB1436A1BB112
:1010100000207047002070470120704790F845007D
:10102000704790F842301BB1436A1BB100207047F3
:10103000002070470120704790F84500704790F8F5
:101040005900704790F85A3033B1C36C022B05DC5D
:10105000436A2BB100207047002070470020704782
:101060000120704790F85B3023B1436A012B03D015
:1010700000207047002070470120704790F85C0006
:10108000704790F84400704790F841301BB1436AB4
:101090001BB100207047002070470120704790F876
:1010A0005D3023B190F820301BB90020704700203C
:1010B00070470120704790F85E3023B190F82030DF
:1010C0001BB1002070470020704701207047C06AA4
:1010D000032814BF002001207047837E23B1C36A18
:1010E000022B03DD0020704700207047012070476D
:1010F00090F85F00704790F84600704790F84230D3
:101100001BB1436A1BB100207047002070470120CB
:10111000704790F8463023B190F828301BB9002072
:101120007047002070470120704790F847301BB18E
:10113000436A1BB1002070470020704701207047B0
:1011400090F8603033B1436B33B9036B012B05D09A
:101150000020704700207047002070470120704732
:1011600090F8613043B1436B012B01D000207047F0
:10117000036B1BB1002070470020704701207047AF
:1011800090F842007047C07E704790F86200704748
:101190000023C3627047012380F8403043698364B1
:1011A0007047012380F8473080F8283070470223C9
:1011B000037000238360704710B50446FFF7EBFF10
:1011C000032323700023A36010BD042303700023B6
:1011D00083607047052343700123836070470B23AE
:1011E000C37003238360704710B50446FFF7D9FF2F
:1011F0000F2323710423A36010BD1723437105231C
:10120000836070471D23C3710723836070470023E9
:10121000037083607047002303708360704710B5CC
:101220000446FFF7F8FF2046FFF7C1FF10BD00237B
:1012300003708360704710B50446FFF7F8FF20463F
:10124000FFF7BAFF10BD10B50446FFF7F0FF2046C8
:10125000FFF7ADFF10BD002343700123836070478B
:1012600010B50446FFF7F7FF012384F8433020460A
:10127000FFF7B0FF10BD10B50446FFF7ECFF0123E8
:1012800084F844302046FFF7A5FF10BD10B5044692
:10129000FFF7E1FF012384F845302046FFF79AFF6E
:1012A00010BD10B50446FFF7D6FF012384F8463081
:1012B0002046FFF78FFF10BD002383700223836059
:1012C0007047002383700223836070470023C3703C
:1012D0000323836070470023C37003238360704738
:1012E0000023C3700323836070470023037104232A
:1012F00083607047002303710423836070470023D9
:101300000371042383607047002303710423836007
:101310007047002343710523836070470023837166
:101320000623836070470023837106238360704720
:10133000002383710623836070470023C371072352
:101340008360704710B50446FFF7A5FD00B910BDD6
:101350002046FFF764FFFAE710B50446FFF79DFD4E
:1013600020B92046FFF79BFD20B910BD2046FFF7AE
:1013700062FFFAE72046FFF766FFF6E710B504467E
:10138000FFF78FFD78B92046FFF797FD78B9204623
:10139000FFF7A9FD78B92046FFF7B6FD30B120462A
:1013A000FFF77FFF02E02046FFF75AFF10BD2046FF
:1013B000FFF761FFFAE72046FFF768FFF6E708B599
:1013C000FFF7F5FE08BD08B5FFF7F9FF08BD08B542
:1013D000FFF700FF08BD08B5FFF7F9FF08BD08B526
:1013E000FFF70BFF08BD08B5FFF7F9FF08BD08B50B
:1013F000FFF708FF08BD08B5FFF7F9FF08BD08B5FE
:1014000000220221FEF798FF08BD10B50446FFF741
:10141000F6FF0623A3700223A36010BD08B5FFF7F3
:10142000F4FF08BD08B5FFF7F9FF08BD10B5044685
:10143000012380F8423000220321FEF77DFF0023C4
:10144000E36110BD10B50446FFF7F0FF0923E37018
:101450000323A36010BD08B5FFF7F4FF08BD08B56E
:10146000FFF7F9FF08BD10B50446FFF734FF20462B
:10147000FFF7E8FF10BD08B500220421FEF75CFF6E
:1014800008BD10B50446FFF7F6FF142323710423AB
:10149000A36010BD08B5FFF7F4FF08BD08B5FFF75E
:1014A000F9FF08BD08B501220221FEF745FF08BD7E
:1014B00010B50446FFF7F6FF0723A3700223A360CD
:1014C00010BD38B50546012480F84140224603216D
:1014D000FEF732FFEC6138BD10B50446FFF7F1FFAF
:1014E0000C23E3700323A36010BD10B50446FFF77F
:1014F000F2FE2046FFF7F0FF10BD10B50446FFF7DF
:1015000036FD20B92046FFF734FD20B910BD204636
:10151000FFF7A9FFFAE72046FFF7E7FFF6E708B570
:10152000012180F829100A46FEF706FF08BD10B514
:101530000446FFF7F4FF102323710423A36010BDBA
:1015400038B5054600240463446322460D21FEF7A6
:10155000FBFE22460C212846FEF7F6FE38BD10B5EC
:101560000446FFF7EDFF1C23A3710623A36010BD03
:1015700008B5FFF7F4FF08BD08B5FFF7F9FF08BD90
:1015800008B500220F21FEF7DFFE08BD10B50446A6
:10159000FFF7F6FF162323710423A36010BD10B5D7
:1015A000044601220D21FEF7CFFE0123236310BD67
:1015B00010B50446FFF7F3FF1A23A3710623A360B7
:1015C00010BD10B50446FFF7B3FE2046FFF7F0FF4D
:1015D00010BD10B50446FFF7D3FD00B910BD20467D
:1015E000FFF7EFFFFAE710B5044601220521FEF7E9
:1015F000A3FE01220C212046FEF7A6FE0123636311
:1016000010BD10B50446FFF7EEFF1923A3710623A2
:10161000A36010BD08B500F15001FFF713F808BD35
:1016200008B5002202708260FFF7F4FF08BD10B514
:101630000446FFF7F5FF2046FFF7C7FD10BD10B5C4
:101640000446FFF723FC00B910BD2046FFF7EFFF6B
:10165000FAE710B5044600F15101FEF7F3FF04F17B
:1016600052012046FEF7EEFF10BD08B50022827041
:1016700002228260FFF7EDFF08BD10B50446FFF7B8
:10168000F4FF2046FFF7C1FE10BD10B50446FFF77A
:10169000ECFF2046FFF70CFF10BD10B50446FFF726
:1016A0004AFC20B92046FFF752FC20B910BD204665
:1016B000FFF7E3FFFAE72046FFF7E7FFF6E708B595
:1016C00000F15301FEF7BEFF08BD08B50022C2704D
:1016D00003228260FFF7F3FF08BD10B50446FFF751
:1016E000F4FF2046FFF77BFD10BD10B50446FFF761
:1016F0003BFC00B910BD2046FFF7EFFFFAE708B545
:1017000000F15401FEF79EFF08BD08B500220271EA
:1017100004228260FFF7F3FF08BD10B50446FFF70F
:10172000F4FF2046FFF7ADFE10BD10B50446FFF7ED
:1017300024FC00B910BD2046FFF7EFFFFAE710B513
:10174000044600F15501FEF77DFF04F156012046E5
:10175000FEF778FF04F157012046FEF773FF04F10E
:1017600058012046FEF76EFF10BD08B50022027139
:1017700004228260FFF7E3FF08BD10B50446FFF7BF
:10178000F4FF2046FFF730FD10BD10B50446FFF70B
:10179000ECFF2046FFF7CBFE10BD10B50446FFF767
:1017A000E4FF2046FFF76DFE10BD08B500F15901BA
:1017B000FEF748FF08BD08B50022027104228260CE
:1017C000FFF7F3FF08BD10B50446FFF7F4FF20460E
:1017D000FFF7DCFE10BD10B50446FFF730FC00B982
:1017E00010BD2046FFF7EFFFFAE710B5044600F101
:1017F0005A01FEF727FF04F15B012046FEF722FFA6
:1018000010BD08B50022027104228260FFF7EDFFCF
:1018100008BD08B500F15C01FEF714FF08BD08B56E
:101820000022027104228260FFF7F3FF08BD10B5A9
:10183000044600F15D01FEF705FF04F15E0120465C
:10184000FEF700FF10BD08B500220271042282607D
:10185000FFF7EDFF08BD08B500F15F01FEF7F2FEEE
:1018600008BD08B50022427105228260FFF7F3FF30
:1018700008BD10B50446FFF7F4FF2046FFF7BDFC96
:1018800010BD10B50446FFF733FC00B910BD20466B
:10189000FFF7EFFFFAE710B5044600F16001FEF72D
:1018A000D1FE04F161012046FEF7CCFE10BD08B563
:1018B0000022827106228260FFF7EDFF08BD10B59D
:1018C0000446FFF7F4FF2046FFF772FE10BD10B587
:1018D0000446FFF7ECFF2046FFF793FE10BD10B55E
:1018E0000446FFF72DFC20B92046FFF739FC20B94C
:1018F00010BD2046FFF7E3FFFAE72046FFF7E7FFBA
:10190000F6E708B500F16201FEF79CFE08BD08B5D8
:101910000022C27107228260FFF7F3FF08BD10B5F5
:101920000446FFF7F4FF2046FFF76CFC10BD10B52E
:101930000446FFF72AFC00B910BD2046FFF7EFFF71
:10194000FAE708B50023642200F15001FEF76CFEAF
:1019500008BD10B50446FFF7F4FF012323700023F0
:10196000A36010BD10B50446FFF751FC2046FFF7F9
:10197000F0FF10BD10B50446FFF78BFA00B910BD9B
:101980002046FFF7EFFFFAE710B5044600234FF4B7
:101990007A7200F15101FEF747FE00234FF47A728C
:1019A00004F152012046FEF73FFE10BD10B504467B
:1019B000FFF7EAFF0823A3700223A36010BD10B550
:1019C0000446FFF779FC002363622046FFF7EEFF31
:1019D00010BD10B50446FFF7A8FA00B910BD2046A7
:1019E000FFF7EDFFFAE710B50446FFF76AFC0123A5
:1019F00063622046FFF7DAFF10BD10B50446FFF71B
:101A000097FA00B910BD2046FFF7EDFFFAE708B5D9
:101A100000234FF47A7200F15301FEF705FE08BD72
:101A200010B50446FFF7F3FF0A23E3700323A36016
:101A300010BD10B50446FFF749FC2046FFF7F0FF44
:101A400010BD10B50446FFF78DFA00B910BD204651
:101A5000FFF7EFFFFAE710B50446FFF741FC204619
:101A6000FFF7DEFF10BD10B50446FFF784FA00B99A
:101A700010BD2046FFF7EFFFFAE710B5044600233C
:101A800040F2B63200F15901FEF7CEFD01220F21DE
:101A90002046FEF759FC012204212046FEF74CFCAB
:101AA00010BD10B50446FFF7E8FF1123237104238E
:101AB000A36010BD10B50446FFF757FE2046FFF7A0
:101AC000F0FF10BD10B50446FFF75AFA78B920466A
:101AD000FFF76BFA78B92046FFF773FA78B920461A
:101AE000FFF780FA30B12046FFF757FE02E02046AC
:101AF000FFF7E0FF10BD2046FFF73FFEFAE7204664
:101B0000FFF743FEF6E710B50446FFF7F8FB204663
:101B1000FFF7C7FF10BD10B50446FFF7F0FB2046E6
:101B2000FFF7BFFF10BD10B50446FFF7AAFA20B9B2
:101B30002046FFF7A9FA20B910BD2046FFF7E3FFC2
:101B4000FAE72046FFF7E7FFF6E710B50446002363
:101B500041F2883200F15C01FEF766FD01220E21A0
:101B60002046FEF7F1FB10BD10B50446FFF7EDFF70
:101B7000132323710423A36010BD10B50446FFF79F
:101B8000B4FB2046FFF7F0FF10BD10B50446FFF789
:101B9000ACFB2046FFF7E8FF10BD10B50446FFF789
:101BA00032FA20B92046FFF739FA20B910BD204695
:101BB000FFF7E3FFFAE72046FFF7E7FFF6E710B588
:101BC0000446FFF740FE2046FFF7CEFF10BD10B5DC
:101BD000044600234FF4FA7200F15401FEF724FD8D
:101BE00000220F212046FEF7AFFB002204212046F1
:101BF000FEF7A2FB002201212046FEF79DFB0023F9
:101C000084F8283084F82930E36410BD10B5044608
:101C1000FFF7DDFF0D2323710423A36010BD10B572
:101C20000446FFF767FB2046FFF7F0FF10BD10B535
:101C30000446FFF75FFB2046FFF7E8FF10BD10B535
:101C40000446FFF7EEF920B92046FFF7F5F920B971
:101C500010BD2046FFF7E3FFFAE72046FFF7E7FF56
:101C6000F6E710B50446FFF7EEFD2046FFF7CEFF7E
:101C700010BD10B50446FFF712FA20B92046FFF751
:101C80001AFA20B910BD2046FFF799FFFAE720465F
:101C9000FFF7E7FFF6E710B50446002341F288326C
:101CA00000F15A01FEF7C0FC002341F2883204F132
:101CB0005B012046FEF7B8FC10BD10B50446FFF7E7
:101CC000EAFF122323710423A36010BD10B504465C
:101CD000FFF71AFB2046FFF7F0FF10BD08B5FFF72E
:101CE000F5FF08BD10B5044600234FF4FA6200F179
:101CF0006001FEF799FC00234FF4FA6204F16101E0
:101D00002046FEF791FC002205212046FEF714FB39
:101D100000220D212046FEF717FB00220C21204651
:101D2000FEF712FB10BD10B50446FFF7DBFF1B23C7
:101D3000A3710623A36010BD10B50446FFF7EEFAA9
:101D400001232363002363632046FFF7ECFF10BDEC
:101D500010B50446FFF7E2FA01232363002363630F
:101D60002046FFF7E0FF10BD10B50446FFF7C3F9AA
:101D700020B92046FFF7C2F920B910BD2046FFF771
:101D8000DBFFFAE72046FFF7E3FFF6E710B504466E
:101D9000FFF7C9FA00232363012363632046FFF79B
:101DA000C2FF10BD10B50446FFF7BDFA0023236340
:101DB000012363632046FFF7B6FF10BD10B504464C
:101DC000FFF7A7F920B92046FFF7AFF920B910BDFA
:101DD0002046FFF7DBFFFAE72046FFF7E3FFF6E7D1
:101DE00010B5044600234FF47A7200F15501FEF756
:101DF0001BFC00234FF47A7204F156012046FEF7D3
:101E000013FC00234FF47A7204F157012046FEF7C9
:101E10000BFC00234FF47A7204F158012046FEF7C0
:101E200003FC1F212046FEF795FA84F8200010BD20
:101E300010B50446FFF7D4FF0E2323710423A360DB
:101E400010BD10B50446FFF7DCFCE36C0133E3641E
:101E50002046FFF7EDFF10BD10B50446FFF7D1FC9B
:101E60002046FFF7E5FF10BD10B50446FFF7EAF87E
:101E700020B92046FFF7F6F820B910BD2046FFF73D
:101E8000E0FFFAE72046FFF7E7FFF6E710B5044664
:101E900000234FF4FA7200F15D01FEF7C5FB002349
:101EA0004FF47A7204F15E012046FEF7BDFB1F215C
:101EB0002046FEF74FFA84F8200000220E2120462B
:101EC000FEF742FA10BD10B50446FFF7DFFF1523F9
:101ED00023710423A36010BD10B50446FFF79FFCD7
:101EE0002046FFF7F0FF10BD10B50446FFF7C6F817
:101EF00000B910BD2046FFF7EFFFFAE710B5044622
:101F000000234FF4966200F15F01FEF78DFB20463F
:101F1000FEF728FA10BD10B50446FFF7EFFF1823AF
:101F200063710523A36010BD10B50446FFF7F1F9F6
:101F3000E36A0133E3622046FFF7EDFF10BD10B501
:101F40000446FFF7CAF820B92046FFF7C0F820B9C9
:101F500010BD2046FFF7E8FFFAE72046FFF718F923
:101F6000F6E710B5044600234FF4FA7200F162015F
:101F7000FEF75AFB2046FEF73FFB10BD10B50446A6
:101F8000FFF7EFFF1E23E3710723A36010BD10B519
:101F90000446FFF7D2F92046FFF7F0FF10BD10B559
:101FA0000446FFF7F0F800B910BD2046FFF7EFFF39
:101FB000FAE738B50446002302E00022E254013378
:101FC000072BFADD0025A5602046FEF721FFE5611D
:101FD00084F8205084F821500123636284F828504B
:101FE00084F82950E5622563656300220023C4E973
:101FF0000E23A564E56438BD10B50446FFF7E3F988
:102000002046FFF7E8F92046FFF70CFA2046FFF7D5
:1020100026FA2046FFF742FA2046FFF7E4F9204669
:10202000FFF7AAFA2046FFF7E6F910BD10B50446FF
:102030000023836005E02046FFF701FBA36801331E
:10204000A360A368072B00F2B780E35C013B1D2B64
:10205000F4D801A252F823F03720001AD120001A38
:10206000D920001AE120001AE920001AF120001AF4
:10207000F920001A0121001A0921001A1121001A61
:102080001921001A2121001A2921001A3121001AD0
:102090003921001A4121001A4921001A5121001A40
:1020A0005921001A6121001A6921001A7121001AB0
:1020B0007921001A8121001A8921001A9121001A20
:1020C0009921001AA121001AA921001AB121001A90
:1020D0002046FFF74FFCB1E72046FFF733F9ADE7A5
:1020E0002046FFF739F9A9E72046FFF747F9A5E7AA
:1020F0002046FFF76EFCA1E72046FFF77EFC9DE738
:102100002046FFF7CAFA99E72046FFF79AFC95E7C1
:102110002046FFF7EAFA91E72046FFF7EEF98DE750
:102120002046FFF7A0FC89E72046FFF7FEFA85E787
:102130002046FFF7C7FC81E72046FFF72EFD7DE72D
:102140002046FFF77CFD79E72046FFF744FB75E763
:102150002046FFF789FE71E72046FFF7C5FE6DE7D1
:102160002046FFF7E0FC69E72046FFF782FD65E7C0
:102170002046FFF7B3FD61E72046FFF7E0FE5DE78D
:102180002046FFF77EFB59E72046FFF7EDFD55E7B8
:102190002046FFF713FE51E72046FFF7A0FB4DE76F
:1021A0002046FFF716FA49E72046FFF7F8FE45E715
:1021B0002046FFF7BCFB41E72046FEF729FE10BD95
:1021C0005030884204DC1330884201D901230B705F
:1021D00070470123037470474161012343747047C2
:1021E00001230376704701234376704701238376EA
:1021F00070470123C3767047C0697047406A7047D3
:1022000090F82800704790F829007047C06A70471E
:10221000006B7047406B704790ED0E0B704780ED80
:102220000E0B704730B400248C420AD225014219AB
:1022300000234351536093601373537393730134BA
:10224000F2E730BC704770B400248C4211D22501F3
:10225000461945590DB10134F7E77360B360326038
:102260009DF80C303373012373730023B37310464E
:1022700000E0002070BC704700238B4214D230B4C1
:102280001C0105190459944204D001338B42F7D341
:10229000002007E000232B606B60AB602B736B7337
:1022A000AB73104630BC70470020704700238B4250
:1022B00011D230B402E001338B4209D21C0105195E
:1022C00004599442F7D1AC7B002CF4D0012000E0FB
:1022D000002030BC70470020704700238B420DD295
:1022E00030B41C0105190459944203D001338B42C8
:1022F000F7D301E00023AB7330BC70477047002375
:102300008B421DD210B406E0002454730124947350
:1023100001338B4211D200EB0312547B002CF7D017
:1023200094680CB1013C94609468002CF0D1147B4B
:10233000002CE9D054689460E8E75DF8044B7047DE
:102340007047704710B572B6194B1A4A1A600433B9
:10235000194A1A60002305E0184A4FF0FF3142F88D
:1023600023100133072BF7D962B6154B07E003F1B1
:102370000C049A6859681868FDF707FF2346114A4C
:102380009342F4D306E01C46596854F8080BFDF755
:102390000BFF23460C4A9342F5D300F0EFFF02F007
:1023A000EFF8FFF7CEFFFEF771F930BFFDE700BF92
:1023B000003105400010DF10FFF7DF0180E200E090
:1023C0001401001A5001001A7801001A7047704772
:1023D00000231C2B12D810B4094A02EB830112F817
:1023E00023404A78488802EB4412064941F822000B
:1023F00001331C2BF0D95DF8044B7047704700BFC8
:102400006C46001A0060084010B5174AD2F8203117
:1024100023F4704343F41043C2F82031D2F824313E
:1024200023F4704343F41043C2F8243101220F49CE
:10243000062000F079FB00244CB10B4B5A6822F0C7
:102440000C025A605A6842F003025A6010BD0848F4
:1024500000EB840101238A78497810F8240000F009
:102460003BFE0134E8E700BF0030044000CB280CFD
:102470006846001A08B5FFF7ABFFFFF7C5FF08BDB8
:102480000022052A19D870B40C4911F8125001EB3A
:1024900042014C780A4B05F5006653F826100120DE
:1024A000A040014343F8261003EB451300211955C2
:1024B0000132052AE8D970BC70477047EC46001A13
:1024C00000400F400023032B16D830B40B4911F8FD
:1024D000132001EB43014D78094C02F5006254F8DA
:1024E00022100120A84021EA000144F82210013303
:1024F000032BEBD930BC7047704700BFE446001A8D
:1025000000400F400023082B16D830B40B4911F8B7
:10251000132001EB43014D78094C02F5006254F899
:1025200022100120A84021EA000144F822100133C2
:10253000082BEBD930BC7047704700BFF846001A33
:1025400000400F4010B582B0084C6946204600F0AC
:1025500013FA074A6946204600F02EFA002269461F
:10256000204600F042FA02B010BD00BF00300E401D
:10257000801A060010B50B4C204600F095F86368F1
:1025800023F004036360236823F0FF0343F0070391
:1025900023600549204600F068F8636843F00203B1
:1025A000636010BD00500C40A086010008B50020FB
:1025B00000F036F9044B40F60802C3F8842C0349B6
:1025C000002000F03FF908BD0060084040420F00C5
:1025D00010B5074C204600F039FE4FF4E13120469B
:1025E00000F05EFE0323E3600123E36510BD00BF3E
:1025F00000100C4008B5FFF7EBFF094800F096F912
:10260000FFF780FFFFF79EFFFFF7B4FFFFF7CEFF56
:10261000FFF736FFFFF756FF00F032FB08BD00BFA3
:1026200000400F4008B5FFF7D3FF08BD034B9842A9
:1026300001D083207047A520704700BF00500C4098
:10264000044B984202D040F2022070474FF4F170E0
:10265000704700BF00500C40036823F47F43090219
:1026600089B2194301600261704770B506460D4694
:10267000FFF7E6FF00F0AEFD02224FF0FF3300212E
:1026800000E02146AB420BD94C1C02FB04F3B0FB2B
:10269000F3F39D42F6D2FF2CF3D902320021F1E789
:1026A0003046FFF7D9FF70BD10B50446FFF7BEFFF7
:1026B00000F076FD2046FFF7C3FF00F071FD636870
:1026C00023F004036360236823F0FF0343F0070350
:1026D000236002492046FFF7C8FF10BDA086010015
:1026E000012909D1C0EBC0008200044B13441A69D0
:1026F000137DDBB2042BFBD0704700BF000000103D
:1027000030B4436803F0F803582B7FD8DFE803F0B8
:102710007A7E7E7E7E7E7E7E2F7E7E7E7E7E7E7E2C
:102720002F7E7E7E7E7E7E7E397E7E7E7E7E7E7E5D
:102730006E7E7E7E7E7E7E7E397E7E7E7E7E7E7E0E
:10274000727E7E7E7E7E7E7E767E7E7E7E7E7E7EBD
:102750006C7E7E7E7E7E7E7E6E7E7E7E7E7E7E7EBB
:102760002D7E7E7E7E7E7E7E4F003C2320E00A789A
:102770008B68B3FA83F35B0943EA420383603C232B
:1027800023E08B684BB90B6923B16FF0200303F092
:102790003C031AE06FF01003F9E74B685A1C4A60DB
:1027A0001B7883608B68013B8B603C230DE02C23FE
:1027B0008468CA68551CCD6014700A69013A0A61C0
:1027C0000A69012A01DD23F0040383F03C02026060
:1027D00023F01002826113F0100F19D00B7D022B31
:1027E00016D0012030BC70473C23E9E705230B7568
:1027F0002C23EAE701230B752C23E6E702230B7554
:102800003C23E2E703230B752C23DEE73C23DCE7C4
:102810000B7D042B01D00020E4E700230B75FAE7C1
:1028200070B50546064EC400221A930033449888BA
:1028300000F0B6FC641BA300F3586C229A6170BDD3
:10284000000000102DE9F0410C460B4EC5002B1A7C
:102850004FEA830806EB0803988800F0BBFCB0FB46
:10286000F4F056F8083042081A6156F808301A6930
:10287000801A5861BDE8F08100000010C0EBC00371
:102880009A00094B13441B6953B1C0EBC00082008E
:10289000054B13449868884214BF002001207047FC
:1028A000014B13449960F0E70000001010B5044696
:1028B0000948E3001B1B9A00831819698058FFF729
:1028C0001FFF40B9C4EBC4039A00034B13449B6839
:1028D00002212046984710BD00000010C0EBC00048
:1028E0008300034AD3581868C0F3C000704700BF84
:1028F00000000010012915D138B50446C0EBC00313
:102900009A00094B13441D692B7DDBB2042B08D1BF
:102910002046FFF7E3FF0028F6D02046FFF7C6FF6A
:10292000F2E738BD704700BF000000107047FFFF9E
:10293000034B984201D0032070470420704700BF2A
:1029400000400E4070B50D4614461E46FFF7F0FFDE
:1029500000F040FC55B104FB06F404EB40006400B9
:10296000B0FBF4F0C0B20138C0B270BD04EB840318
:1029700004EB4304F1E7FFFF38B505460C46FFF7CB
:10298000D7FF01231A46194600F0ECFB0021E9604D
:10299000084A2260217161710B232846FFF7D2FF9C
:1029A000000240F400132079400400F46020184332
:1029B000286038BD801A060070B505460E460468CA
:1029C00024F46F2424F470640A600B79C3F10B03C0
:1029D000DBB24979FFF7B6FF44EA002033795B04A4
:1029E00003F4602303432B6070BD08B50A710A68C5
:1029F000FFF7E2FF08BD10B4436803F0F803302B83
:102A00004CD008D9482B6CD034D9582B58D0F82B3F
:102A10003ED100202BE0102B16D00ED9202B3DD01C
:102A2000282B01D0182B35D18B88002B3ED1CB8899
:102A3000002B5ED14B802C230FE01BB903234B806E
:102A40002C230AE0082B25D10A788B88B3FA83F36C
:102A50005B0943EA420383603C2383F03C0202604B
:102A600003F02C0383614888FF3818BF01205DF80C
:102A7000044B7047382B38D0402B0BD1CA88012A21
:102A800027D93823002AE8D14A8023F01003E4E74D
:102A9000502B15D001234B802C23DEE74B7813F00D
:102AA000010FC1D102234B802C23D6E78B685A1C1F
:102AB0008A601B7883608B88013B8B803C23CCE74A
:102AC0008268CB685C1CCC601A70CB88013BCB80E1
:102AD000D4E74B7813F0020F01D13C23D2E738231F
:102AE000D0E704234B802C23B7E705234B803C23FE
:102AF000B3E71C23B1E7FF234B802C2383616023C2
:102B00000360704738B504460D46FFF7F4FF002018
:102B100003E029462046FFF76EFF20B9236813F033
:102B2000080FFBD0F5E738BD70B58AB005460E46F4
:102B300014464CF250330993062818D00023012282
:102B40002946042000F0C8FA4A4A536C43F00103B6
:102B500053648DF8085001A9304600F035FA464B11
:102B60009E4216D9019B13F0400F03D0FEE700F000
:102B70008DF9E3E713F0800F05D023F08003019374
:102B80000025012607E0049B01330493012500265C
:102B900001E000252E469DF80820019B43EA0263D0
:102BA000059A43EA0243039A43EA0233049A43EA4A
:102BB000022343F400632F4A53642E4B1B6C13F023
:102BC000010FFAD0002301220921042000F084FA29
:102BD00006B34CF250330993099B5A1E0992002BFD
:102BE000FAD1019B43F0800301939DF8082043EA4A
:102BF0000263059A43EA0243039A43EA0233049AC2
:102C000043EA022343F400631A4A5364002C2ED192
:102C10000AB070BD002DF9D04CF250330993099BD6
:102C20005A1E0992002BFAD1049B5A1E04929DF859
:102C30000810019B43EA0163059943EA01430399A4
:102C400043EA013343EA022343F40063094A53642D
:102C5000DCE70A4800EB8401CB788A78497810F8E1
:102C6000240000F039FA0134112CF2D9D0E7002405
:102C7000FAE700BF0000054080778E061047001A73
:102C800008B5692000F0A6FA014B186008BD00BF26
:102C90004C020010F0B40B6813F0800F02D023F048
:102CA00040030B60074601253AE04B6903FB02F342
:102CB000B3FBF5F31CE01C46B0EB040C27D46745CE
:102CC00006D98D60771CCF600A618C61CB61674645
:102CD0000132B2F5807F1DDC0C6814F0400FE4D0A7
:102CE000731C02FA03FC4B6903FB0CF3B3FBF5F313
:102CF000DFF838C06345EBD9DFF834C0634509D845
:102D000014F0800FD7D1741C23FA04F4D4E7CCF16B
:102D1000000CD4E70136032E01DC0122D9E701358E
:102D2000042D01DC0026F6E7F0BC7047FF5E4C097D
:102D300000D01213F0B599B005460C465C22002174
:102D400001A801F041FC8023009363690593237976
:102D50008DF8043069462846FFF79CFF069BAB427E
:102D600027D0EB1A2ED41E46109B23F0400310935D
:102D70006369159323798DF8443010A92846FFF72D
:102D800089FF169BAB421FD0EB1A25D41F462B4B55
:102D90009D4223D90E9BED1A33D4AE423BDCBE429A
:102DA00031DC6D460FCD0FC495E80F0084E80F00AD
:102DB00006E06D460FCD0FC495E80F0084E80F00C4
:102DC00019B0F0BD5B42CEE710AD0FCD0FC495E852
:102DD0000F0084E80F00F3E75B42D7E74023089336
:102DE00063690D9308A92846FFF754FF0E9BAB4279
:102DF000D0D108AD0FCD0FC495E80F0084E80F00C7
:102E0000DEE76D42C9E710AD0FCD0FC495E80F00A6
:102E100084E80F00D4E7AF4207DB08AD0FCD0FC445
:102E200095E80F0084E80F00CAE710AD0FCD0FC47E
:102E300095E80F0084E80F00C2E700BF80778E0698
:102E400030B4054600231C2000E001331C2818D1B3
:102E500003EB430251000C4A0A441479844210D017
:102E600003EB43014A0008498A5AAA42EDD803EB12
:102E700043025100044A0A445288AA42E5D320463C
:102E8000E4E730BC704700BF6447001A82B04FF4DB
:102E90007A7301930D4A936923F0020192698A4281
:102EA00001D00A4A916123F00303094A1168094AD3
:102EB000914201D943F00403044A9361019B5A1ED5
:102EC0000192002BFAD102B0704700BF000005400C
:102ED0000C47001AFF2C31011230054B53F820002B
:102EE00010F0010F02D1C0F3046070471120704749
:102EF0000000054000F11202034B53F82220034B5F
:102F0000185C00EA92007047000005405C47001A18
:102F100008B510280AD8DFE800F0440B0D18210985
:102F200024272A2D09093034383C400000203AE09B
:102F30001E4838E01E4BD3F82C3103F00703042B56
:102F400001D01C482FE000202DE0194BD3F82C3184
:102F500003F00703042B27D0164824E0164B18680B
:102F600021E0164B18681EE0154B18681BE0144B47
:102F7000586818E000F068F815E0002100F09AF8B1
:102F800011E0012100F096F80DE0022100F092F826
:102F900009E0032100F08EF805E0042100F08AF832
:102FA00001E04FF4004008BD0648FCE7001BB700F5
:102FB0000030044040787D01E046001A0C47001ABA
:102FC0002002001080F0FA0238B505460C46087958
:102FD000FFF79EFF6061194B2B44194A934221D899
:102FE00018B3802323600023A360E360B5FBF0F3F4
:102FF0002361144A954203D903FB00F0A84207D08D
:1030000021462846FFF796FEA3688BB1013BA360DB
:10301000236983B1E2680AB1013AE260013B2361AE
:10302000002038BD4FF0FF30FBE74FF0FF30F8E7EE
:103030004FF0FF30F5E74FF0FF30F2E7103A6BFF4B
:103040001005940BFF5E4C0930B583B0174D6C6CC6
:10305000C4F30360FFF75CFF154B1B6801932B6CF7
:1030600013F0010F20D0C4F30743C4F30132C4F3BB
:103070000121C4F38015013301320DF1080C6144C4
:1030800011F8041C14F0800F08D13DB94900B3FBBE
:10309000F1F3B0FBF2F000FB03F003E0B0FBF2F061
:1030A00003FB00F003B030BD0020FBE7000005404B
:1030B0005847001A38B50C460846FFF70DFF05467D
:1030C0002046FFF717FF04462846FFF721FF01348B
:1030D000B0FBF4F038BDFFFF30B400F11604A400DB
:1030E00004F1804404F5A02464681B2813D8112936
:1030F0001AD00E4D25400AB145F400650BB145F0DC
:10310000010545EA01651630800000F1804000F5B8
:10311000A020456008E044F001041630800000F172
:10312000804000F5A020446030BC7047FEF7FFE00F
:103130001B280CD81630800000F1804000F5A0203C
:10314000406810F0010F04D1C0F3046070471120F3
:1031500070471120704708B5FFF7EAFFFFF7D8FE68
:1031600008BDFFFF71B901210AB141F00401022B32
:103170000AD0B0F5A17F0AD3A0F59170064B43F8B1
:10318000301070470321EFE741F02001F1E72030D4
:10319000024B43F8301070470020054000100540F6
:1031A000B0F5A17F09D3094AA0F5917052F83030EB
:1031B00043F0010342F830307047054A203052F89E
:1031C000303043F0010342F83030704700200540B2
:1031D0000010054010B5B0F5A17F09D3A0F591739B
:1031E0000D4A52F8334014F0010F07D1002010BDF2
:1031F00000F12003094A52F83340F4E7FFF720FEBC
:10320000FFF7A9FF14F0E00F03D10123B0FBF3F0A7
:10321000EDE70223FAE700BF00200540001005405B
:10322000094B984209D003F58053984207D0A3F583
:103230008023984205D00020704702207047032069
:1032400070470120704700BF00100C4030B583B0BC
:103250000446FFF7E5FF01231A4619460E4D35F8DF
:103260001000FFF77FFF0723A3600023E36563607F
:10327000E3602362E36463652365084B9C4206D0E8
:103280000323E3601023A362019B03B030BD00233E
:103290002361A3690193F3E7D847001A002008408F
:1032A0002DE9F04F83B001908846FFF7B9FF324B0C
:1032B00033F81000FFF78EFF06464FF0FF3701246A
:1032C0004FF0000BA246D9462AE042424B1C17E0C1
:1032D0000AB31746AB46A24699460135AC421ED901
:1032E00033093007A4FB000104FB0311621908FB3A
:1032F00002F2002300F0C2FF02460B460028E4DB86
:103300009742EAD3002BE8D0190CE6D1022BDFD884
:10331000002DDDD0E1E71746AB46A24699460134C1
:103320001FB10F2C01D80025D8E7B9F1000F1ED02E
:10333000019A1146D36843F08003D3605FFA89F3A2
:103340001360C9F307235360D36823F08003D3606D
:103350004FEA0A13DBB20BF00F0213438B623309FF
:103360000AFB03F3DA4409FB0AF9B3FBF9F948460F
:1033700003B0BDE8F08F00BFD047001A08B50B4A74
:103380000B4B9A6003F50C731B6903F47F63202BCE
:1033900004D0FFF76FF8FFF72DF908BD044AD2F803
:1033A000883043F47003C2F88830F2E70000001A56
:1033B00000ED00E0044B1860044A136843F0010379
:1033C00013600120704700BF38000010001000E0BB
:1033D00030B40B4D00EB80002C182856087094F97F
:1033E0000110117094F902201A7094F90320029BC5
:1033F0001A7094F90420039B1A7030BC704700BF08
:10340000E047001A10F1020F00F0C780B0F1FF3F53
:1034100000F0C58070B584B00C4600238DF80F30E5
:103420008DF80E308DF80D308DF80C308DF80B3096
:103430000DF10B03019303AB00930DF10D030DF19F
:103440000E020DF10F01FFF7C3FF052C00F2A9805A
:10345000DFE804F00981274563035348FFF766FA64
:10346000012004B070BD9DF80F109DF80E309DF83E
:103470000D2042F0D00203EB41134C4941F82320C8
:103480009DF80C309DF90B20012000FA02F1464C0A
:1034900003F5006354F8232022EA010244F82320B4
:1034A000DFE79DF80F109DF80E309DF80D2042F0DB
:1034B000C00203EB41133D4941F823209DF80C3035
:1034C0009DF90B20012000FA02F1374C03F500634F
:1034D00054F8232022EA010244F82320C1E79DF892
:1034E0000F109DF80E309DF80D2042F0D80203EB2E
:1034F00041132E4941F823209DF80C309DF90B20F3
:10350000012000FA02F1284C03F5006354F823204F
:1035100022EA010244F82320A3E79DF80F109DF84A
:103520000E309DF80D2042F0C80203EB41131F49F5
:1035300041F823209DF80C309DF90B20012000FA62
:1035400002F1194C03F5006354F8232022EA01022A
:1035500044F8232085E79DF80F109DF80E309DF864
:103560000D2042F0D00203EB4113104941F8232013
:103570009DF80C409DF90B20012000FA02F10A4B46
:1035800004F5006553F82560314343F82510D2B2A5
:1035900003EB44130021995463E700207047002097
:1035A000704700205DE700BF00400F40006008400A
:1035B00010F1020F2DD0B0F1FF3F2CD010B584B028
:1035C0000C4600238DF80F308DF80E308DF80D303D
:1035D0008DF80C308DF80B300DF10B03019303AB1C
:1035E00000930DF10D030DF10E020DF10F01FFF728
:1035F000EFFE9DF80C309DF80B20211C18BF012117
:103600005B0103F1402303F570239954012004B0BA
:1036100010BD002070470020704710F1020F2CD021
:10362000B0F1FF3F2BD000B585B000238DF80F30EF
:103630008DF80E308DF80D308DF80C308DF80B3084
:103640000DF10B03019303AB00930DF10D030DF18D
:103650000E020DF10F01FFF7BBFE9DF90C309DF836
:103660000B205B0103F1402303F57023985C0030CD
:1036700018BF012005B05DF804FB01207047002051
:103680007047FFFF08B10020704738B504460D466B
:10369000084B40F60802C3F8842CFFF7C1F829460E
:1036A0002046FFF7CFF804492046FFF7E7F801204E
:1036B00038BD00BF00600840F528001A08B100209E
:1036C000704700B585B08DF8001000218DF801100D
:1036D000ADF802100292ADF804300391ADF8061077
:1036E00069460548FFF70EFA18B1012005B05DF8EC
:1036F00004FB0020FAE700BF00100A40014BD3E9A9
:10370000000170473002001030B1054A10600120FE
:1037100021B1044B196070470020F9E70020704781
:10372000380200102802001018B1044B07221A605A
:103730007047024B00221A60704700BF10E000E0A3
:1037400038B550EA01042AD010F1FF3241F1FF33BD
:10375000002B08BF322A27D2144BC3E90001144BB7
:103760001B68A3FB004503FB01554FF47A7200234D
:103770002046294600F082FD0138B0F1807F09D251
:103780000C4B58600C4AE02182F8231000229A600A
:1037900007221A600120FFF7C7FF012038BD002073
:1037A000FFF7C2FF0020F9E70020F7E74000001014
:1037B0004C02001010E000E000ED00E008B5074A00
:1037C00013685168013341F1000113605160044BEB
:1037D0001B6813B1034A1068984708BD30020010F7
:1037E000380200102802001008B5044B1B681B6843
:1037F000DB68034A1068984708BD00BF50020010FC
:103800003C02001008B5FFF73BFA1A4B1868FFF7A7
:10381000D1FD01200021FFF793FF05210020FFF7D4
:10382000F1FD00212420FFF7EDFD00212520FFF709
:10383000E9FD00212620FFF7E5FD00212720FFF705
:10384000E1FD01212820FFF7DDFD01212920FFF7FF
:10385000D9FD01212A20FFF7D5FD01212B20FFF7FB
:10386000D1FD01212C20FFF7CDFD01212D20FFF7F7
:10387000C9FD08BD4C0200102DE9F04383B0054698
:103880000E460A2900DD0A26B5EEC00AF1EE10FA4E
:1038900040D42C46002E44DB86B14F4B03EBC603CD
:1038A000D3E9008910EE100A00F040FC42464B4676
:1038B00000F0DEFA00F092FC00EE100AFDEEC07A95
:1038C00017EE901AF8EEE77A70EE677A002960D169
:1038D0002346302203F8012B002E76D02E2203F847
:1038E000012B711E002E70D0B2EE040A67EE807AB2
:1038F000BCEEE77A8DED017A9DF8042002F13000EC
:1039000003F8010B07EE102AB8EEC70A77EEC07A6B
:103910000E46E6E7B1EE400A2C462D2304F8013BA3
:10392000B8E7F7EE007AB4EEE70AF1EE10FA24D425
:10393000F2EE047AB4EEE70AF1EE10FA1FD4DFEDEE
:10394000277AB4EEE70AF1EE10FA1AD4DFED247A02
:10395000B4EEE70AF1EE10FA15D4DFED227AB4EEF8
:10396000E70AF1EE10FA10D4DFED1F7AB4EEE70AA1
:10397000F1EE10FA0BD40026A0E706268DE7052607
:103980008BE7042689E7032687E7022685E70126D9
:1039900083E7234679B1154880FB0120CA17C2EBA3
:1039A000A002174602EB820250000A1A303203F8D6
:1039B000012B3946EEE71A4694428DD212F8011DCA
:1039C0002078107004F8011BF6E700221A702846D0
:1039D00003B0BDE8F08300BFC848001A0000C84229
:1039E00000007A4400401C460050C3476766666684
:1039F00038B50546074C0023237051EC100B00F03E
:103A0000EDFB00EE100A29462046FFF735FF204661
:103A100038BD00BF54020010F0B484B04FEA810CEE
:103A200083004CEA90721B1841EB0202110241EA3A
:103A300013611802C61A61EB02073B0143EA1673D1
:103A4000320116461F46CDE90067DDE90023CDE9C6
:103A50000223DDE90223134308D0DDE9022312F13A
:103A6000FF3443F1FF35CDE90245F2E704B0F0BC85
:103A7000704730B585B0031841EB0102181842EBCE
:103A800001010B0143EA10730201801843EB0101AD
:103A90008B0043EA90738200104619460A220023E5
:103AA00000F0ECFBCDE90001DDE90023CDE90223C4
:103AB000DDE90223134308D0DDE9022312F1FF34CC
:103AC00043F1FF35CDE90245F2E705B030BDFFFF18
:103AD0002DE9F84380468946FFF710FE06460F465B
:103AE000FFF70CFE841B61EB0705064BD3E90023AF
:103AF0004046494600F0C2FB8D4208BF8442EFD3E6
:103B0000BDE8F8834000001000B585B0094B18707F
:103B1000094B1B7818438DF80F00012300930DF11A
:103B20000F02064909780020FFF7C8FD05B05DF8CF
:103B300004FB00BF4B0200104A02001048000010B6
:103B400008B5084B1B7839B1012202FA00F0034393
:103B5000D8B2FFF7D9FF08BD012101FA00F023EA2E
:103B60000000F6E74B02001008B5FFF7E9FF08BDBB
:103B700010B5044600F080010720FFF7F5FF04F0C0
:103B800040010620FFF7F0FF04F020010520FFF7B9
:103B9000EBFF04F010010420FFF7E6FF10BD08B5AD
:103BA00001210220FFF7E0FF19200021FFF761FF4C
:103BB00000210220FFF7D8FF08BDFFFF00B585B048
:103BC0008DF80F00064B1870012300930DF10F02C2
:103BD000044909780020FFF771FD05B05DF804FB8A
:103BE0004A0200104800001008B5044B197000206C
:103BF000FFF7E4FF0020FFF787FF08BD4800001033
:103C000010B5044600F0F000FFF7B2FF00210846AF
:103C1000FFF7AAFF00210120FFF7A6FFFFF7BFFF74
:103C200019200021FFF725FF200100F0F000FFF729
:103C30009FFFFFF7B4FF10BD10B5044600F0F00081
:103C4000FFF796FF01210020FFF78EFF00210120E2
:103C5000FFF78AFFFFF7A3FF200100F0F000FFF756
:103C600087FFFFF79CFF10BD38B5274D288069807E
:103C7000AA80EB8000242C726C7227212046FFF76B
:103C8000B3FF01210320FFF76FFF21460120FFF75B
:103C90006BFF21462046FFF767FF21460220FFF712
:103CA00063FF3020FFF7ACFF6E200021FFF7E1FE3D
:103CB0003020FFF7A5FF28200021FFF7DAFE0820BB
:103CC000FFF79EFF6E200021FFF7D3FE0120FFF7D4
:103CD00097FF0C200021FFF79FFE0620FFF790FFC3
:103CE00001200021FFF798FE0C20FFF789FF032039
:103CF0000021FFF791FE0220FFF782FF0320002141
:103D0000FFF78AFE38BD00BF4002001082B2114B9F
:103D10001B889A4204D28BB20E4A5288934200D337
:103D2000704730B583B00D4604460B4B1B680193BA
:103D300002AB0B4413F8040C2044C0B2FFF760FF41
:103D400064200021FFF795FE024B1C725D7203B0E8
:103D500030BD00BF400200102049001A08B5012004
:103D6000FFF74EFF03200021FFF756FE08BD08B500
:103D700040F00C00FFF744FF03200021FFF74CFE4A
:103D800008BD38B505460024285D20B1FFF754FF73
:103D90000134E4B2F8E738BD38B50D4600F007004D
:103DA000C00040F04000FFF72BFF002404E0285D36
:103DB000FFF742FF0134E4B2072CF8D901200021BB
:103DC000FFF786FE024B597A187AFFF79FFF38BD3E
:103DD0004002001008B5084B597A8AB25B889A42B3
:103DE00000D308BD044B002018720131C9B25972CA
:103DF000FFF78CFFF5E700BF400200100D2816D03A
:103E000010B504460A280CD0094B1A7A1B889A422E
:103E10000AD22046FFF710FF054A137A01331372C6
:103E200010BDFFF7D7FFFBE7FFF7D4FFF1E77047BF
:103E30004002001038B505460024285D18B1FFF790
:103E4000DDFF0134F9E738BD10B5044610EE100A65
:103E500000F06CF941EC100B2046FFF7C9FDFFF7AD
:103E6000E9FF10BD81F0004102E000BF83F0004394
:103E700030B54FEA41044FEA430594EA050F08BF05
:103E800090EA020F1FBF54EA000C55EA020C7FEAC9
:103E9000645C7FEA655C00F0E2804FEA5454D4EB46
:103EA0005555B8BF6D420CDD2C4480EA020281EA10
:103EB000030382EA000083EA010180EA020281EA48
:103EC0000303362D88BF30BD11F0004F4FEA01319A
:103ED0004FF4801C4CEA113102D0404261EB4101A9
:103EE00013F0004F4FEA03334CEA133302D052422F
:103EF00063EB430394EA050F00F0A780A4F10104EB
:103F0000D5F1200E0DDB02FA0EFC22FA05F2801824
:103F100041F1000103FA0EF2801843FA05F359410A
:103F20000EE0A5F120050EF1200E012A03FA0EFC89
:103F300028BF4CF0020C43FA05F3C01851EBE371B3
:103F400001F0004507D54FF0000EDCF1000C7EEBD0
:103F500000006EEB0101B1F5801F1BD3B1F5001F0E
:103F60000CD349085FEA30004FEA3C0C04F101042D
:103F70004FEA445212F5800F80F09A80BCF1004F56
:103F800008BF5FEA500C50F1000041EB045141EAD8
:103F9000050130BD5FEA4C0C404141EB010111F4D9
:103FA000801FA4F10104E9D191F0000F04BF014684
:103FB0000020B1FA81F308BF2033A3F10B03B3F162
:103FC00020020CDA0C3208DD02F1140CC2F10C02F2
:103FD00001FA0CF021FA02F10CE002F11402D8BF50
:103FE000C2F1200C01FA02F120FA0CFCDCBF41EA1C
:103FF0000C019040E41AA2BF01EB0451294330BDEB
:104000006FEA04041F3C1CDA0C340EDC04F11404C7
:10401000C4F1200220FA04F001FA02F340EA03009E
:1040200021FA04F345EA030130BDC4F10C04C4F1E4
:10403000200220FA02F001FA04F340EA03002946C4
:1040400030BD21FA04F0294630BD94F0000F83F40E
:10405000801306BF81F480110134013D4EE77FEAF1
:10406000645C18BF7FEA655C29D094EA050F08BF3D
:1040700090EA020F05D054EA000C04BF194610461E
:1040800030BD91EA030F1EBF0021002030BD5FEA62
:10409000545C05D14000494128BF41F0004130BD8A
:1040A00014F580043CBF01F5801130BD01F00045DE
:1040B00045F0FE4141F470014FF0000030BD7FEA51
:1040C000645C1ABF194610467FEA655C1CBF0B464C
:1040D000024650EA013406BF52EA033591EA030F63
:1040E00041F4002130BD00BF90F0000F04BF00215B
:1040F000704730B54FF4806404F132044FF000058E
:104100004FF0000150E700BF90F0000F04BF002106
:10411000704730B54FF4806404F1320410F000456C
:1041200048BF40424FF000013EE700BF42004FEA67
:10413000E2014FEA31014FEA02701FBF12F07F43E4
:1041400093F07F4F81F06051704732F07F4208BF9B
:10415000704793F07F4F04BF41F40021704730B5A2
:104160004FF4607401F0004521F000411CE700BFEE
:1041700050EA010208BF704730B54FF000050AE071
:1041800050EA010208BF704730B511F0004502D572
:10419000404261EB41014FF4806404F132045FEA74
:1041A000915C3FF4D8AE4FF003025FEADC0C18BF1D
:1041B00003325FEADC0C18BF033202EBDC02C2F10F
:1041C000200300FA03FC20FA02F001FA03FE40EAA1
:1041D0000E0021FA02F11444BDE600BF4FEA41028D
:1041E000B2F1E04324BFB3F5001CDCF1FE5C0DD955
:1041F00001F0004C4FEAC0024CEA5070B2F1004F9F
:1042000040EB830008BF20F00100704711F0804FA1
:1042100021D113F13872BCBF01F00040704741F466
:1042200080114FEA5252C2F11802C2F1200C10FA6A
:104230000CF320FA02F018BF40F001004FEAC1234E
:104240004FEAD32303FA0CFC40EA0C0023FA02F3F2
:104250004FEA4303CCE77FEA625307D150EA0133C8
:104260001EBF4FF0FE4040F44000704701F0004098
:1042700040F0FE4040F40000704700BF53B94AB917
:10428000002908BF00281CBF4FF0FF314FF0FF305E
:1042900000F074B9ADF1080C6DE904CE00F006F839
:1042A000DDF804E0DDE9022304B070472DE9F047B2
:1042B000089E04468846002B40F085808A421546B9
:1042C00048D9B2FA82F24AB1C2F1200701FA02F3E8
:1042D00020FA07F7954047EA030894404FEA154E45
:1042E000230CB8FBFEF71FFA85FC0EFB178843EA88
:1042F000084307FB0CF1994209D9EB1807F1FF308D
:1043000080F0E380994240F2E080023F2B445B1A48
:10431000A4B2B3FBFEF00EFB103344EA034400FBEF
:104320000CFCA44509D92C1900F1FF3380F0CB8097
:10433000A44540F2C88002382C4440EA0740A4EB70
:104340000C0400271EB1D4400023C6E900433946BF
:10435000BDE8F087002A53D0B2FA82F2002A40F07A
:10436000B680491B4FEA154E1FFA85F80127B1FBAD
:10437000FEFC230C0EFB1C1143EA014308FB0CF16D
:10438000994207D9EB180CF1FF3002D2994200F2A2
:10439000EC808446591AA3B2B1FBFEF00EFB101458
:1043A00043EA044408FB00F8A04507D92C1900F1A2
:1043B000FF3302D2A04500F2DC801846A4EB0804CB
:1043C00040EA0C40BEE78B4208D9002E78D0002787
:1043D000C6E9000138463946BDE8F087B3FA83F7ED
:1043E0007FB98B4202D3824200F2BD80841A61EB16
:1043F000030301209846002EA9D0C6E90048A6E78D
:10440000FFDEC7F12005BB4022FA05FC4CEA030C95
:1044100001FA07F420FA05F821FA05F34FEA1C4ED9
:1044200048EA0404B3FBFEF9210C0EFB19331FFA12
:104430008CF841EA034309FB08FA9A4502FA07F2AD
:1044400000FA07F10BD91CEB030309F1FF3080F0F0
:1044500088809A4540F28580A9F102096344A3EB64
:104460000A03A4B2B3FBFEF00EFB103344EA03448C
:1044700000FB08F8A04508D91CEB040400F1FF3349
:104480006BD2A04569D90238644440EA0940A4EBE4
:104490000804A0FB02894C45C6464B4654D351D074
:1044A000002E69D0B1EB0E0264EB030404FA05F5AB
:1044B00022FA07F3FC401D43C6E90054002746E7F3
:1044C0003746304643E7184637E707461FE7C2F14D
:1044D000200320FA03F7954001FA02F021FA03F3D2
:1044E0004FEA154E3843010CB3FBFEF71FFA85F86F
:1044F0000EFB173341EA034107FB08F38B4204FA32
:1045000002F407D9691807F1FF3C28D28B4226D95B
:10451000023F2944CB1A81B2B3FBFEF00EFB1033ED
:1045200041EA034100FB08F38B4207D9691800F107
:10453000FF3C10D28B420ED902382944C91A40EAF6
:10454000074714E74145ABD2B8EB020E69EB0C020A
:1045500001381346A4E76046F0E7184695E767463A
:10456000D8E781467BE7384645E7ACF1020C2B449F
:1045700010E702382C4421E73746E8E6704700BFD1
:1045800070B50D4D0D4C641BA4100026A64209D138
:104590000B4D0C4CFDF71BFF641BA4100026A6421C
:1045A00005D170BD55F8043B98470136EEE755F844
:1045B000043B98470136F2E72449001A2449001ABF
:1045C0002449001A2C49001A02440346934200D1A0
:1045D000704703F8011BF9E70E0A0A0E0E171F0EAB
:1045E000477275706F3A00004D6F646F00000000F5
:1045F00053616C6964613A0000FFFFFF54656D70A0
:104600003A200000526564204578743A00000000AA
:104610004F4E000046616C6C610000004D616E758C
:10462000616C00004175746F6D617469636F0000A7
:10463000477275706F0000004E696E67756E61009D
:104640004572726F7200FFFF005EBCE2613FDD8366
:10465000C29C7E20A3FD1F41009D23BE46DB65F862
:104660008C11AF32CA57E974010F010102004400F6
:104670000201440002024400020A4000020B400012
:10468000020C4000010050000101500001025000E6
:1046900001065000060150000604500006055000B7
:1046A000060754000608540006095000060A500088
:1046B000060B5000060C50000F04F0000103D5005B
:1046C0000104D5000701160007025600020352003C
:1046D000020452000905520009065700060257005D
:1046E00000000000000400080009010905000501A0
:1046F0000502000E010B010C030003030304050F68
:1047000005100305030603070208FFFF001BB7009F
:1047100000010100090901000A0901000107010166
:1047200002090100060901000C0901010D0901003F
:104730000E0901000F090100100901001109010013
:1047400012090100130901001411010019110100DF
:104750001A1101001B11010001020408030F0F0FC1
:10476000FF000000000005000A00200024000900EE
:104770004000400005006000A6000400C000C30027
:104780000200E000E0000100000100010300200140
:1047900020010600400140010C00420142011900C5
:1047A000620162011300820182011200A201A201D2
:1047B0001100C201C2011000E201E2010F00020279
:1047C00002020E00220222020D00230223021C001C
:1047D000C201A2018201620181008200A100A20047
:1047E0000401000201070500030D01050001080492
:1047F0000200020204030002030400000200070496
:1048000000030C0302040509030104050802030464
:1048100005030204040504060C000208060B00034D
:10482000070609000305060704050F060400030335
:104830000404000204040500020504060002060444
:104840000804050C040A04050E010300000A011403
:1048500000000F011200000D011100000C011000FA
:104860000003070700030F00010000010000000023
:1048700000060A00030606080405100605000304E6
:104880000601000300040904050D010400000B01EA
:104890000F000002010000000401010000080102F5
:1048A00000000901060001090200040500020104DC
:1048B00005010202040502020A00000E020B0001BB
:1048C0000B020C00010CFFFF000000000000E03FA5
:1048D0009A9999999999A93F7B14AE47E17A743FC7
:1048E000FCA9F1D24D62403F2D431CEBE2360A3F5A
:1048F000F168E388B5F8D43E8DEDB5A0F7C6A03ECB
:1049000048AFBC9AF2D76A3E3A8C30E28E79353E97
:1049100095D626E80B2E013EBBBDD7D9DF7CCB3D1B
:0449200080C094D4EB
:08492400BD07001A2526001A48
:08492C0080F9FF7F010000008B
:1049340000100A4022000000E126001A00000000D6
:1049440000000000000000000000000000000E4015
:1049540001000000E126001A000000000000000031
:10496400000000000000000000CB280CFFFFFFFF48
:0C497400010000000000000027FFFFFF12
:040000051A00234575
:00000001FF
